:100000000C948D6C0C94AC6C0C94AC6C0C94AC6C2F
:100010000C94AC6C0C94AC6C0C94AC6C0C94AC6C00
:100020000C94AC6C0C94AC6C0C9446A50C9412A67D
:100030000C94AC6C0C94AC6C0C94AC6C0C94AC6CE0
:100040000C94AC6C0C948B770C94AC6C0C94AC6CE6
:100050000C94AC6C0C94AC6C0C94AC6C0C94AC6CC0
:100060000C94AC6C0C94AC6C0C94AC6C0C94AC6CB0
:100070000C94AC6C0C94AC6C0C94AC6C0C94AC6CA0
:100080000C94AC6C0C94AC6C0C94AC6C0C94AC6C90
:100090000C94AC6C0C94AC6C190C0C0207000000B6
:1000A0000000000000000000000000000000000050
:1000B00000000000000200007F01000000000000BE
:1000C0000000000000000000000000000000030726
:1000D0000000000700000000000000000000000019
:1000E00000000000000000072400A4017C00A7011C
:1000F0007C00270024000000000000000000000039
:10010000060000CE001101FF031101E20000000013
:100110000000000000000000000A00000E001100B6
:100120001101CE003800E60011011001E0000000CE
:100130000000080000E0001E0111012901C600A016
:1001400000000100000000000000000200000700A5
:10015000000000000000000000000000000000009F
:1001600000000000040000F8000603010400000085
:100170000000000000000000000000000003010477
:100180000603F8000000000000000000000000006E
:100190000000000000000502000A0007000A00023B
:1001A0000000000000000000000000000000000649
:1001B0000000100010007C00100010000000000083
:1001C0000000000000000000020000000700000026
:1001D000000000000000000000000000000000001F
:1001E00000032000200020000000000000000000AC
:1001F00000000000000000000000020000000100FC
:1002000000000000000000000000000000000000EE
:100210000000000380017C000300000000000000DB
:10022000000000000000000000000000060000FECA
:1002300000010101010101FE0000000000000000BA
:10024000000000000004000004000200FF010000A4
:100250000000000000000000000000000000060098
:100260000002018101410131010E01000000000086
:1002700000000000000000060000820001011101E2
:100280001101EE000000000000000000000000006E
:10029000060000600058004600FF0140000000001A
:1002A0000000000000000000000600009C000B01A0
:1002B00009010901F1000000000000000000000039
:1002C0000000060000FE00110109010901F2000012
:1002D0000000000000000000000000060000010017
:1002E000C10139000700010000000000000000000B
:1002F00000000000060000EE00110111011101EEE6
:1003000000000000000000000000000000060000E7
:100310009E00210121011101FE00000000000000EB
:1003200000000000000002000004010000000000C6
:1003300000000000000000000000000000000002BB
:1003400000000407000000000000000000000000A2
:100350000000000000000000060000100028002837
:100360000028004400000000000000000000000021
:1003700000064800480048004800480048000000C7
:1003800000000000000000000000060000440028FB
:1003900000280028001000000000000000000000FD
:1003A00000000006000006000100610111000E00BF
:1003B0000000000000000000000000000C0000F041
:1003C000010C02E204120909090909F109190902DB
:1003D000058604780207800170002E0021002E009F
:1003E0007000800100000000000000000000070015
:1003F00000FF011101110111011101FE00000000B7
:10040000000000000000000800007C0082000101E4
:100410000101010182004400000000000000000012
:10042000080000FF01010101010101010182007CBE
:10043000000000000000000000070000FF011101A3
:100440001101110111011101000000000000000064
:100450000000060000FF0111001100110001000062
:1004600000000000000000000000000800007C0008
:1004700082000101010111019200740000000000DE
:1004800000000000080000FF011000100010001024
:10049000001000FF0100000000000000000200004A
:1004A000FF0100000000000000000000000000004C
:1004B00000000000000005C000000100010001FF75
:1004C0000000000000000000000000000000000824
:1004D0000000FF01200010002800440082000101FC
:1004E0000000000000000000070000FF0100010004
:1004F00001000100010001000000000000000000F8
:1005000000080000FF010600780080017800060066
:10051000FF010000000000000000080000FF0102D1
:10052000000C00100060008000FF010000000000CF
:100530000000000800007C008200010101010101AF
:1005400082007C000000000000000000070000FFA7
:100550000111001100110011000E00000000000048
:1005600000000000000800007C0082000101410141
:10057000410182007C010000000000000000080032
:1005800000FF011100110011003100D1000E010027
:1005900000000000000000070000CE001101110162
:1005A00011011101E6000000000000000000000041
:1005B00007010001000100FF01010001000100002E
:1005C0000000000000000000000800007F00800024
:1005D00000010001000180007F0000000000000019
:1005E00000000703001C006000800160001C000385
:1005F00000000000000000000000000B0700780071
:10060000800170000E0001000E00700080017C006F
:1006100003000000070101C600280010002800C6E2
:1006200000010100000000000000000000070100C0
:1006300006000800F00108000600010000000000AC
:100640000000000000000700018101610111010D9F
:100650000103010101000000000000000000000390
:100660000000FF070104000000000000000000007F
:1006700000000000000000000303007C0080010077
:10068000000000000000000000000000000000006A
:1006900000020104FF07000000000000000000004D
:1006A000000000000000000000000510000E000126
:1006B000000E00100000000000000000000000001C
:1006C000000000070004000400040004000400040B
:1006D0000004000000000000000000000300000112
:1006E0000002000000000000000000000000000008
:1006F0000000000000060000C80024012401A4003E
:10070000F8010000000000000000000000000600EA
:1007100000FF01880004010401F80000000000004F
:1007200000000000000000050000F80004010401C2
:100730008800000000000000000000000000000031
:10074000060000F800040104010801FF0100000098
:10075000000000000000000000060000F800240176
:1007600024012401B8000000000000000000000087
:100770000000040400FE010500010000000000006C
:100780000000000000000000000000060000F80467
:10079000040504058804FC030000000000000000BC
:1007A00000000000060000FF01080004000400F83B
:1007B0000100000000000000000000000002000036
:1007C000FD0100000000000000000000000000002B
:1007D000000000000000020004FD03000000000013
:1007E0000000000000000000000000000000000603
:1007F0000000FF0120003000C800040100000000DC
:100800000000000000000000020000FF01000000E6
:1008100000000000000000000000000000000000D8
:10082000000A0000FC01080004000400F8010800B0
:1008300004000400F80100000000060000FC0108AC
:100840000004000400F801000000000000000000A7
:10085000000000060000F800040104010401F80093
:10086000000000000000000000000000060000FC86
:1008700007880004010401F80000000000000000E7
:100880000000000000060000F800040104018800D8
:10089000FC07000000000000000000000000040051
:1008A00000FC01080004000000000000000000003F
:1008B0000000000000000006000098002401240150
:1008C0002401C8000000000000000000000000003B
:1008D000030400FF0104010000000000000000000C
:1008E000000000000000000000060000FC00000105
:1008F00000010001FC0100000000000000000000F9
:100900000000050C007000800170000C0000000069
:100910000000000000000000000000090C00700052
:10092000800170000C007000800170000C0000005D
:1009300000000000050401D8002000D800040100D8
:1009400000000000000000000000000000050C0096
:100950007004800370000C00000000000000000024
:10096000000000000000050401C40124011C010472
:100970000100000000000000000000000000000373
:100980002000DE0301040000000000000000000061
:100990000000000000000000020000FF070000004F
:1009A0000000000000000000000000000000000047
:1009B000000400000104DE0320000000000000002D
:1009C000000000000000000000000500000E001103
:1009D0000011000E000000000000000000000000F8
:1009E00000000003FE030202FE03000000000000FE
:1009F000000000000000000000000000491817037C
:100A00000D000000000000000000000000000000D9
:100A100000000000000000000000000000000000D6
:100A200000000000000000000000000000000000C6
:100A300000000000000000000000000000000000B6
:100A40000000000000000000000A0000000000009C
:100A5000000002000003003001000F00E003007CF2
:100A600000001E0000020000000000000000000066
:100A70000000000000000000000000000000000076
:100A80000000000000000000000000000000000066
:100A900000000D0000000000000000000000000049
:100AA00000004000007C00000E000002000040003A
:100AB000007C00000E0000020000000000000000AA
:100AC0000000000000000000000000000000000026
:100AD0000000000000000000000000110000000005
:100AE000000200980380F801C07800C01E00C01FFB
:100AF00002E09903F8F801DE7800C61E00C21F006C
:100B0000E01900F81800DE0000C600000200000036
:100B100000000000000000000000000000000000D5
:100B2000000000001000000000000000000000F0C5
:100B30000100F003E0800BF801079CC3030C3B03AA
:100B4000068701E687011EC600077E000E3C003EB8
:100B500000003C0000000000000000000000000059
:100B6000000000000000000000000000001600006F
:100B7000000000000000000000000000040000046D
:100B8000E00106F883031CC201066200823100E224
:100B900018007E0C001CC60380F307C03904600CEB
:100BA0000430040318E4010CFC00061000020000ED
:100BB0000000000000001100000000000000C00064
:100BC00000F00100F803000C03000603600203F8C4
:100BD0000303DC87018C8F01C6FC00C6F0006EF0B9
:100BE000033E98011C0C01000400000000000000FE
:100BF00000000000000000000000000000000009EC
:100C000000000000000000000000000000000040A4
:100C100000007C00000E0000020000000000000048
:100C200000000000000000000000000000000000C4
:100C300000000000000000000000000000000000B4
:100C4000000000000000000017000000000000008D
:100C50000000000000000000000000000000000094
:100C60000000000000000000000000000000000084
:100C700000000000F81F001F3C800310E00000305F
:100C800000001800000C0000060000030000000037
:100C9000000900001800000C00000600000300C05E
:100CA0000102F0000F3E00FE0F0060000000000097
:100CB0000000000000000000000000000000000034
:100CC0000000000000000000000000000000000024
:100CD000000000000000000000000E000000000006
:100CE00000000000000000000000900000D800009C
:100CF0005800003000003C0000FE000052000018C8
:100D000000000800000000000000000000000000DB
:100D100000000000000000000000000000000000D3
:100D200000000010000000000000000000000400AF
:100D300000060000060000060000C60000FE0000DD
:100D40003F00E00700F00600100600000600000665
:100D5000000006000000000000000000000000008D
:100D6000000000000000000000000000050000007E
:100D700000001000000A0000070000010000000051
:100D80000000000000000000000000000000000063
:100D90000000000000000000000000000000000053
:100DA0000000000000000000000000000000000043
:100DB000000000000009000000000000000000002A
:100DC0001800001800001800001800001800001893
:100DD0000000000000000000000000000000000013
:100DE0000000000000000000000000000000000003
:100DF00000000000000000000000000000000500EE
:100E000000000000000000020000030000010000DC
:100E100000000000000000000000000000000000D2
:100E200000000000000000000000000000000000C2
:100E300000000000000000000000000000000000B2
:100E4000000000000000000D00000200000300C0D0
:100E50000100F000003800000E00000700C0010093
:100E6000E000003800001E00000600000200000044
:100E70000000000000000000000000000000000072
:100E80000000000000000000000000000000000062
:100E90001100000000000000000000F80100FF0346
:100EA000C08703F000033800030C00030C80010628
:100EB000C00106E0000638008E1F00FC0700780025
:100EC0000000000000000000000000000000000022
:100ED0000000000000000000001100000000000001
:100EE00000000000000000000000000000000060A2
:100EF000000220C00330F801103F00E80700FC00AA
:100F0000001E0000020000000000000000000000C1
:100F100000000000000000000000000000000000D1
:100F20000000110000000000020000030080030028
:100F3000C0032060033030031830030C1803040C86
:100F400003060C03060603060301860100FE0000EB
:100F50007C00000000000000000000000000000015
:100F60000000000000000000000000110000000070
:100F7000000000400000E00100E00320000330001A
:100F8000031800030C030306030106830186E70030
:100F9000867E00FE1C007C000010000000000000A7
:100FA0000000000000000000000000000000000041
:100FB0000000000011000000002000003000003898
:100FC00000003C00003600003300803100C03002D9
:100FD00060F00330F801183F00EC3700FC30001ED1
:100FE00000000200000000000000000000000000FF
:100FF00000000000000000000000000000110000E0
:101000000000000000400000E00100E103C0010317
:10101000F00103BE0003CE0003C68001C6C001C6B6
:10102000E100C67F00861F000602000600000200E5
:1010300000000000000000000000000000000000B0
:10104000000000000000110000000000000000008F
:1010500000F80100FF01C08703F002033803039C7E
:1010600001038C810186810186E300867F00061FD3
:10107000001E00001C00001800000000000000001E
:10108000000000000000000000000000000000114F
:1010900000000000000000000000000200800300CB
:1010A000E001047000063C00060E00060700860101
:1010B00000C600006600003600001E00000E0000A2
:1010C0000600000200000000000000000000000018
:1010D00000000000000000001100000000000000FF
:1010E000C00000F80100FC03000C03E00603F80355
:1010F000039C03030C830106830106E700867F003F
:10110000FE3C007C00000800000000000000000021
:1011100000000000000000000000000000000000CF
:10112000001100000000000000C00100C0010081AB
:1011300003E00703F00F03180C030C0C030C8C01E5
:1011400006C400066600063A008E1F00FC0700F881
:10115000000000000000000000000000000000008F
:10116000000000000000000000000A000000000075
:1011700000000002000003000001800000C0000029
:10118000C00000000000000000000000000000009F
:10119000000000000000000000000000000000004F
:1011A000000000000000000000000000000000003F
:1011B0000000000800000000001000000A00000706
:1011C000000001800000C00000C00000000000001E
:1011D000000000000000000000000000000000000F
:1011E00000000000000000000000000000000000FF
:1011F00000000000000000000000000011000000DE
:1012000000000000000000000000000000070000D7
:101210000F00000D00801D00801900C03800C03094
:1012200000407000602000600000300000100000EE
:1012300000000000000000000000000000000000AE
:10124000000000000010000000000000000000008E
:101250000000001800801800C01800C01800C01856
:1012600000C01800C01800C01800C01800C0180046
:10127000C00000C0000000000000000000000000EE
:1012800000000000000000000000000000000F004F
:1012900000000000000000000040000020000030BE
:1012A00000203000701800601800E01800C00C002A
:1012B000C00D00800500800700000700000000004E
:1012C000000000000000000000000000000000001E
:1012D00000000000000000100000000000000000FE
:1012E0000000000000000020000230200318380138
:1012F0000C3C00040C0006060006030006010086F4
:101300000100FE00007C0000000000000000000062
:1013100000000000000000000000000000000000CD
:101320001700C00300F80F003E1E00073880013090
:10133000C0C07060F87130BC631806631803638C1A
:1013400001618C8161C48060C6C063C6E063C679F8
:1013500033861F33868711C68118CEC0080C700CE7
:10136000FC3F04F00F000000000F0000020000032B
:1013700000C00100E000003800001C00001E0080DA
:101380001B00C019006018003818001C180006184F
:1013900000FEFF03FEFF030000000000000000004D
:1013A000000000000000000000000000000000003D
:1013B00000001000000000000200C00300F803005D
:1013C0003F03E00703FC03031E03030603030603B6
:1013D0000306030106830106C700867E00FE3C006B
:1013E0003C000000000000000000000000000000C1
:1013F00000000000000000000000001100000000DC
:10140000780000FF01C0C701E0800330000318002E
:10141000030C00030C000306800106800106C000D7
:1014200006E0000630001E10007C0000780000007E
:1014300000000000000000000000000000000000AC
:10144000000000001200000000000200C00300F8CD
:1014500003003F03E00703FC00031E000306000334
:1014600006000306800106800106C0000660000E2B
:1014700038009E1F00FC0700700000000000000004
:101480000000000000000000000000000014000048
:101490000000000000000200C00300F803003F034A
:1014A000E00703FC03031E0303060303060303060E
:1014B00003030603030603030603010603000600F5
:1014C000000600000600000200000000000000000E
:1014D00000000000000013000000000000000002F7
:1014E00000C00300F801003F00E00700FC03001EFD
:1014F00003000603000603000603000603000603BC
:1015000000060300060000060000060000020000BE
:1015100000000000000000000000000000000014B7
:1015200000000000000000380000FF00C0E701E0FC
:1015300080013080031800031800030C00030C0026
:101540000306040306860106860106860106C60018
:101550000EFE001E3E007C06007800000000000029
:101560000000000000000000140000000000000067
:10157000000200C00300F801003F00E00700FC0388
:10158000001E03000203000003000003000003022A
:1015900000C30300FB01003F00E00700FC00001E49
:1015A0000000020000000000000000000000000039
:1015B000000A00000000000000000200C00300F864
:1015C00001003F00E00700FC00001E0000020000D8
:1015D000000000000000000000000000000000000B
:1015E00000000000000000000000000000000000FB
:1015F000000000000000000000000F0000000000DC
:101600000000C00100E00300A0030000030000038D
:1016100000800100C001007800001F00E00700FC0E
:1016200000001E000002000000000000000000009A
:1016300000000000000000000000000000000000AA
:101640000000001500000000000000000200C003C0
:1016500000F801003F00E00F00FC0C001E06000235
:101660000300800F00801D00C0780060E001308022
:10167000031000021800000C000006000002000029
:101680000200000000000000000000000D0000004B
:1016900000000000000200C00300F803003F03E068
:1016A0000703FC00031E0003020003000003000008
:1016B0000300000100000000000000000000000026
:1016C000000000000000000000000000000000001A
:1016D00000000000001700000000000000000200F1
:1016E000C00300F801003F00E00700FC00001EF00E
:1016F00003FEFF03FE8F0300C001007000003800EE
:10170000000E00800702C0C10370F801383F00EEF0
:101710000700FE00001E0000020000000000140090
:10172000000000000000000200C00300F801003FBC
:1017300000E00700FC00001E0000FE0000F80F00A3
:1017400000FF0100F00300C00300F801003F00E0CB
:101750000700FC00001E0000020000000000000066
:10176000000000000000001400000000000000382D
:101770000000FF00C0C301E0800330000318000335
:101780000C00030C00030400030680010680010620
:10179000C00006C0000670000E38003C0E00F807BE
:1017A00000E0010000000000000000000000000058
:1017B0001200000000000000000200C00300F80159
:1017C000003F00E00700FC06001E060006060006BB
:1017D000060006060006060006060006030086034D
:1017E00000FE01007C00000000000000000000007E
:1017F00000000000000000000014000000000000D5
:1018000000380000FF00C0E701E08003300003184B
:1018100000030C00030C400304600306C00106C073
:101820000106C0030660070670020E38003C0E0079
:10183000F80700E0010000000000000000000000C8
:1018400000001300000000000000000200C00300C0
:10185000F801003F00E00700FC03001E0300060340
:1018600000060300060300060F00067F0006FB03C8
:10187000868103860100FE00007C0000000000005D
:101880000000000000000000000000100000000048
:10189000000000F00100F001008003E00003F80107
:1018A000039C03030C03030603030683010687015D
:1018B00006C600067E003E3C003C00000000000022
:1018C0000000000000000000000000000000000018
:1018D00000000000110000000000000400000600ED
:1018E0000206C00306F801063F00E60700FE0000FE
:1018F0001E000006000006000006000006000006AC
:1019000000000600000200000000000000000000CF
:1019100000000000000000000000000000120000B5
:101920000000000000F80100FF03E00703FC0003D3
:101930001E000302000300000300000300800100FA
:10194000E000007800001F00E00700FC00001E001F
:101950000002000000000000000000000000000085
:1019600000000000000011000000000000FEFF0366
:10197000FEFF0300000300C00100E000003800008B
:101980001C00000700800300C00100700000380048
:10199000000E000006000002000000000000000031
:1019A000000000000000000000000000000000181F
:1019B00000000000000000E003F0FF03FEFF030E44
:1019C000C001007000003800000E00000700C001D8
:1019D00000E000003800001CC003FEFF03FEBF0350
:1019E0001EC001007000003800000E00800700E0FB
:1019F00001007800001E0000160000020000020036
:101A0000000300800100C0000060000030000638C4
:101A1000001E1800FC0C00E00700801F00807D0005
:101A2000C0F00160C0033000023000001800000C5C
:101A3000000006000002000002000000000000009C
:101A400000120000000000000600003E0002F8C086
:101A500003E0FB01803F000006000003008001005E
:101A6000C000006000003000001800000C000006FC
:101A70000000020000020000000000000000000062
:101A800000000000000000000000140000020080C0
:101A90000300C00300600300600300300304180368
:101AA000060C03060C0306060306030386010386E1
:101AB0000103C600036600013600003600001E0068
:101AC000000E000002000000000000000000000006
:101AD0000000000C00007800007E00C06700F86184
:101AE000003F20E00700FC00001E0000060000068A
:101AF00000000600000200000000000000000000DE
:101B000000000000000000000000000000000000D5
:101B100000000000000000000000000008000000BD
:101B200000000000000000000000000080FF03FE35
:101B3000FF037E0000000000000000000000000025
:101B40000000000000000000000000000000000095
:101B50000000000000000000000000000000000085
:101B600000000000000B0000600000600000780032
:101B7000003E00C00704F801063F00E60700FE0033
:101B8000001E000002000000000000000000000035
:101B90000000000000000000000000000000000045
:101BA00000000000000000000000000000000D0028
:101BB00000000000000000000000000002008003A0
:101BC00000C001006000003800001C00000E000092
:101BD000FE0300FC03000000000000000000000005
:101BE00000000000000000000000000000000000F5
:101BF0000000000000000015000060000060000010
:101C00006000006000006000006000006000006094
:101C100000006000006000006000006000006000E4
:101C200000600000600000600000600000600000D4
:101C300060000060000020000000000000000000C4
:101C40000A0000000000000000000000000000008A
:101C50000000000000000600000E00000E00000062
:101C60000000000000000000000000000000000074
:101C70000000000000000000000000000000000064
:101C80000000000000000000000E00000000000046
:101C900000C00100F003003203001B03801903C0E1
:101CA0001801C09801C08C00C0EC03C0FC03C03F09
:101CB000008007000000000000000000000000009D
:101CC0000000000000000000000000000000000014
:101CD00000000D00000000000200C00300F8010039
:101CE000BF01E00703FC01039E0103C20001C080A5
:101CF00001C0C000C07900801F000000000000008B
:101D000000000000000000000000000000000000D3
:101D100000000000000000000000000C00000000B7
:101D2000000000F80100FE030007038001038000AB
:101D300003C08001C0C001C04100C0030080030097
:101D40000000000000000000000000000000000093
:101D50000000000000000000000000000000000083
:101D6000000000001000000000000000F80100DE8C
:101D700003000303800103800003C08001C08002D0
:101D8000C0E003C0FF01003F00E00700FC00001EB0
:101D90000000020000000000000000000000000041
:101DA000000000000000000000000000000D000026
:101DB0000000000000F80100FE03000F03800D0387
:101DC000800C03C00C03C08C01C0CC00C04D00804F
:101DD0000F000003000000000000000000000000F1
:101DE00000000000000000000000000000000000F3
:101DF0000000000000000E000000000000000002D3
:101E000080C003C0F801C03F00E00700F80000DC1C
:101E10000000C60000C60000060000060000020028
:101E200000000000000000000000000000000000B2
:101E30000000000000000000000000000000000F93
:101E400000001000003800007800F86100FE630018
:101E50000763800163800133C00039C0801EC0E089
:101E60000780FD01003F00C00700C0000000000027
:101E70000000000000000000000000000000000062
:101E800000000000000000000E0000000000020042
:101E9000C00300F801003F00E00700FC01009E01C4
:101EA00000C20000C00002C0C003C0F901C03F0072
:101EB000800700000000000000000000000000009B
:101EC0000000000000000000000000000000000012
:101ED000000900000000000200C00300F801003FFC
:101EE00000C00700C400000600000200000000005F
:101EF00000000000000000000000000000000000E2
:101F000000000000000000000000000000000000D1
:101F10000000000000000000000009000038000080
:101F20001E00C00700F801003F00C00700C4000009
:101F30000600000200000000000000000000000099
:101F40000000000000000000000000000000000091
:101F50000000000000000000000000000000000081
:101F60000000000F00000000000200C00300F801A4
:101F7000003F00E01F00FC18001E3C0002E60100CC
:101F8000C203000302800100C000004000004000C6
:101F90000000000000000000000000000000000041
:101FA0000000000000000000000000000900000028
:101FB00000000200C00300F801003F00E00700FC41
:101FC00000001E00000200000000000000000000F1
:101FD0000000000000000000000000000000000001
:101FE00000000000000000000000000000000000F1
:101FF00000000000001400000000000200C0030008
:10200000F801003F00C00700C00100800000C000D0
:1020100002C0C003C0F801C03F008007008001007B
:10202000800000C00002C0C003C0F801C03F0080B3
:1020300007000000000000000000000000000E008B
:10204000000000000200C00300F801003F00C007CC
:1020500000C00100800100C00000C00002C0C00339
:10206000C0F901C03F008007000000000000000030
:102070000000000000000000000000000000000060
:10208000000000000000000E000000000000000042
:102090000000F80100DE0300030380010380000359
:1020A000C00001C08001C0C000C07900801F0000D6
:1020B0000700000000000000000000000000000019
:1020C0000000000000000000000000000000000010
:1020D0000E00007800003E00C00700F80100FF037A
:1020E000C00703C00103800003C00001C08001C01D
:1020F000E000C07F00801F0000030000000000001F
:1021000000000000000000000000000000000000CF
:102110000000000000000000000E000000000000B1
:1021200000F80100FE03000703800103800043C0A4
:102130000071C0803EC0E00780FF01003F00C00783
:1021400000C00000000000000000000000000000CF
:10215000000000000000000000000000000000007F
:1021600000000C00000000000200C00300F80100A5
:102170003F00C00700C00100800000C00000C00098
:1021800000C000004000000000000000000000004F
:10219000000000000000000000000000000000003F
:1021A00000000000000000000000000D0000000022
:1021B000000000C00100C003008F03800F03801DDA
:1021C00003C01803C09801C0F801C0F100C00300AB
:1021D000800300000000000000000000000000007C
:1021E00000000000000000000000000000000000EF
:1021F000000000000A00000000000080C003C0F8DA
:1022000003C03F03E00703F80000DC0000C000004B
:10221000C0000000000000000000000000000000FE
:1022200000000000000000000000000000000000AE
:10223000000000000000000000000000000F00008F
:102240000000000000C00100F80300BF03C0070346
:10225000C0000300000100800100800200E00300D4
:10226000F801003F00C00700C000000000000000AF
:10227000000000000000000000000000000000005E
:102280000000000000000D000000000000C0FF037F
:10229000C0FF0300800300C0010070000038000090
:1022A0001C00000700800300C00000400000000088
:1022B000000000000000000000000000000000001E
:1022C00000000000000000000000000000000014FA
:1022D00000000000000000F003C0FF03C09F0300E7
:1022E000C001007000003800000E00800700C0FD33
:1022F00003C0FF03C09F0300C001007000003C004A
:10230000000E00800300C00100400000000000003B
:1023100000000000000000001000000200000200A9
:10232000000300800140C000C06100C03700001FF2
:102330000000780000EC0300860300030280010027
:10234000C00000400000400000000000000000004D
:10235000000000000000000000000000000000007D
:10236000000F000060000060000060000038C0FF47
:102370001FC0FF0700F80300C00100700000380014
:10238000000E00000700800300C0000040000000B5
:10239000000000000000000000000000000000003D
:1023A000000000000000000000000F00000200001C
:1023B0000300800380C003C06003C02003C030035B
:1023C000C01803C00C03C00403C00603C00301C04F
:1023D0000100C00000C0000000000000000000007C
:1023E00000000000000000000000000000000000ED
:1023F00000000018000000000000000000000000C5
:1024000000000000000000000000000000000000CC
:1024100000000000000000000000000000000008B4
:102420001E00FC3F00FE10000300E00100780000E9
:102430000C00000600000300000200000A0000403B
:1024400000007800003E00C00700F801003F00E0F7
:102450000700FC00001E0000020000000000000059
:10246000000000000000000000000000000000006C
:10247000000000000000000000000000000000005C
:1024800000000000000800001000000800000F001D
:10249000C003007000821B00F70F003E0400000024
:1024A000000000000000000000000000000000002C
:1024B000000000000000000000000000000000001C
:1024C00000000000000000000000000000000F00FD
:1024D00000000000000000000000000004000006F2
:1024E00000000300000300000300000700000700D5
:1024F00000060000060000060000030000000000C7
:1025000000000000000000000000000000000000CB
:1025100000000000000000010000000000000000BA
:1025200000000000000000000000000000000000AB
:10253000000000000000000000000000000000009B
:10254000000000000000000000000000000000008B
:10255000000000000000000000000000000000007B
:10256000691A1C040E0000000000000000000000BA
:10257000000000000000000000000000000000005B
:10258000000000000000000000000000000000004B
:10259000000000000000000000000000000000003B
:1025A000000000000000000000000000000000002B
:1025B000000000000000000000000000000000001B
:1025C0000000000000000000000000000006000005
:1025D000000000000000FE031E00FE7F1E00FE7FC4
:1025E0001E00FE031E0000000000000000000000AE
:1025F00000000000000000000000000000000000DB
:1026000000000000000000000000000000000000CA
:1026100000000000000000000000000000000000BA
:1026200000000000000000000000000000000000AA
:102630000000000000000B000000007E000000FE13
:10264000000000FE0000007E00000000000000000E
:102650000000007E000000FE000000FE0000007E82
:10266000000000000000000000000000000000006A
:10267000000000000000000000000000000000005A
:10268000000000000000000000000000000000004A
:102690000000000000000000000000000000000F2B
:1026A000C0E10000C0E11C00C0E11F00C0FF1F002E
:1026B000F8FF0700FEFF0000FEE10000CEE11C0075
:1026C000C0E11F00C0FF1F00F8FF0700FEFF000071
:1026D000FEE10000CEE10000C0E1000000000000CB
:1026E00000000000000000000000000000000000EA
:1026F00000000000000000000000000000000000DA
:1027000000000000000000000E00000000000000BB
:1027100000F0810100F8830700FC870F001E0F1FE7
:10272000000E0F1C00FFFF7F00FFFF7F000E1E1C2E
:10273000001E3C1E003CFC0F0038F8070030F00380
:102740000000000000000000000000000000000089
:102750000000000000000000000000000000000079
:102760000000000000000000000000000000000069
:10277000001700000000F8010000FC030000FE0745
:102780000000060600000606000006063000FE07F0
:102790003C00FC033F00F8C10F0000F0030000FC08
:1027A0000000003F0000E00F0000F8C30F00FEE053
:1027B0001F003EF03F000630300000303000003097
:1027C000300000F03F0000E01F0000C00F000000DC
:1027D00000000000000000000000130000000000E6
:1027E000E0030000F0070078F80F00FCFD0F00FC8C
:1027F0003F1E00FE1F1C008E1F1C000E3F1C008E83
:102800007F1E00FEFF1F00FCF10F00FCE10F0078AF
:10281000E0070000F00F0000F00F0000701E000045
:10282000000E000000040000000000000000000096
:102830000000000000000000000000000000000098
:1028400000000005000000007E000000FE00000007
:10285000FE0000007E0000000000000000000000FC
:102860000000000000000000000000000000000068
:102870000000000000000000000000000000000058
:102880000000000000000000000000000000000048
:102890000000000000000000000000000000000038
:1028A0000000000000000000000000000800000020
:1028B0000000FE0300C0FF1F00F0FF7F00FCFFFFD1
:1028C00001FE00F8031E00C0030200000200000029
:1028D00000000000000000000000000000000000F8
:1028E00000000000000000000000000000000000E8
:1028F00000000000000000000000000000000000D8
:1029000000000000000000000000000000000000C7
:1029100000000000000800000000020000021E008D
:10292000C003FE00F803FCFFFF01F0FF7F00C0FFC3
:102930001F0000FE03000000000000000000000077
:102940000000000000000000000000000000000087
:102950000000000000000000000000000000000077
:102960000000000000000000000000000000000067
:1029700000000000000000000000000000000A1835
:102980000000001801000090030000F00100007E2C
:102990000000007E000000F001000090030000181D
:1029A000010000180000000000000000000000000E
:1029B0000000000000000000000000000000000017
:1029C0000000000000000000000000000000000007
:1029D00000000000000000000000000000000000F7
:1029E000000000000000000F00000000001E0000BA
:1029F000001E0000001E0000001E0000001E00005F
:102A0000F0FF0300F0FF0300F0FF0300F0FF0300FE
:102A1000001E0000001E0000001E0000001E00003E
:102A2000001E000000000000000000000000000088
:102A30000000000000000000000000000000000096
:102A40000000000000000000000000000000000086
:102A500006000000000000000000009E000000DEF4
:102A6000010000FE0000007E0000000000000000E9
:102A70000000000000000000000000000000000056
:102A80000000000000000000000000000000000046
:102A90000000000000000000000000000000000036
:102AA0000000000000000000000000000000000026
:102AB000000000000000000000090000000000F01D
:102AC000000000F0000000F0000000F0000000F046
:102AD000000000F0000000F0000000F00000000026
:102AE00000000000000000000000000000000000E6
:102AF00000000000000000000000000000000000D6
:102B000000000000000000000000000000000000C5
:102B100000000000000000000000000000000000B5
:102B2000000006000000000000000000001E000081
:102B3000001E0000001E0000001E0000000000003B
:102B40000000000000000000000000000000000085
:102B50000000000000000000000000000000000075
:102B60000000000000000000000000000000000065
:102B70000000000000000000000000000000000055
:102B80000000000000000000000000080000180025
:102B900000801F0000F81F0080FF0700F87F000082
:102BA000FE0700007E00000006000000000000009C
:102BB0000000000000000000000000000000000015
:102BC0000000000000000000000000000000000005
:102BD00000000000000000000000000000000000F5
:102BE00000000000000000000000000000000000E5
:102BF000000000000E00000000C0FF0000F0FF0316
:102C000000FCFF0F00FCFF0F003E001F000E001C29
:102C1000000E001C000E001C003E001F00FCFF0FF9
:102C200000FCFF0F00F0FF0300C0FF0000000000E9
:102C30000000000000000000000000000000000094
:102C40000000000000000000000000000000000084
:102C5000000000000000000000000000000B000069
:102C6000000000000000C0030000E0010000E001DF
:102C70000000F000000078000000FCFF1F00FEFFD5
:102C80001F00FEFF1F00FEFF1F00000000000000ED
:102C90000000000000000000000000000000000034
:102CA0000000000000000000000000000000000024
:102CB0000000000000000000000000000000000014
:102CC0000000000000000E00000000600018007806
:102CD000001E007C801F007CC01F001EE01F000E35
:102CE000F01D000EF81C000E7C1C001E3E1C00FE99
:102CF0001F1C00FC0F1C00F8071C00F0011C00004A
:102D000000000000000000000000000000000000C3
:102D100000000000000000000000000000000000B3
:102D20000000000000000000000000000000000E95
:102D30000000000030800100388007003C800F0058
:102D40003E800F001E001E000E071C000E071C0018
:102D50009E071C00FE0F1E00FCFD0F00F8FD0F007B
:102D600070F8070000F00100000000000000000003
:102D70000000000000000000000000000000000053
:102D80000000000000000000000000000000000043
:102D900000000000000000000E00E0010000F00153
:102DA0000000FC010000DE010080CF0100C0C30173
:102DB00000F0C1010078C00100FEFF1F00FEFF1FF0
:102DC00000FEFF1F00FEFF1F0000C0010000C00149
:102DD00000000000000000000000000000000000F3
:102DE00000000000000000000000000000000000E3
:102DF00000000000000000000000000000000000D3
:102E0000000E0000000000070300F8070700FE079F
:102E10000F00FE071F001E031E008E031C008E0302
:102E20001C008E031C008E071E008EFF0F000EFF7D
:102E30000F000EFE030000F801000000000000007B
:102E40000000000000000000000000000000000082
:102E50000000000000000000000000000000000072
:102E6000000000000000000000000E0000000080D4
:102E7000FF0000F0FF0300F8FF0700FCFF0F003C1D
:102E80000E1E000E071C000E071C000E071C001E65
:102E90000F1E003EFF0F003CFE0F0038FC07003005
:102EA000F001000000000000000000000000000031
:102EB0000000000000000000000000000000000012
:102EC0000000000000000000000000000000000002
:102ED0000000000E000000000E0000000E000000C8
:102EE0000E001E000EE01F000EFC1F000EFF1F0054
:102EF0008EFF0100EE1F0000FE070000FE01000033
:102F00007E0000003E0000001E00000000000000E7
:102F100000000000000000000000000000000000B1
:102F200000000000000000000000000000000000A1
:102F30000000000000000000000000000E00000083
:102F400000F0E00300F8F10700FCFB0F00FEFF0FAC
:102F5000001E1F1E000E0E1C000E0E1C000E0E1C6E
:102F6000001E1F1E00FEFF0F00FCFB0F00F8F10704
:102F700000F0E0030000000000000000000000007E
:102F80000000000000000000000000000000000041
:102F90000000000000000000000000000000000031
:102FA00000000000000E00000000E0030300F80F26
:102FB0000F00FC1F0F00FC3F1F001E3C1E000E38C0
:102FC0001C000E381C000E381C001E1C0F00FCFFDD
:102FD0000F00F8FF0700F0FF0300C07F00000000B3
:102FE00000000000000000000000000000000000E1
:102FF00000000000000000000000000000000000D1
:1030000000000000000000000000000000000700B9
:103010000000000000000000000000C0031E00C00F
:10302000031E00C0031E00C0031E000000000000BD
:103030000000000000000000000000000000000090
:103040000000000000000000000000000000000080
:103050000000000000000000000000000000000070
:103060000000000000000000000000000000000060
:103070000000000000000007000000000000000049
:1030800000000000C0039E00C003DE01C003FE007C
:10309000C0037E00000000000000000000000000EF
:1030A0000000000000000000000000000000000020
:1030B0000000000000000000000000000000000010
:1030C0000000000000000000000000000000000000
:1030D00000000000000000000000000000000000F0
:1030E0000E00000000001C0000003E0000003E003A
:1030F00000007F00000077000080F7000080E30000
:1031000000C0E30100C0E30100C0C10100E0C10351
:1031100000E0C10300F08007000000000000000094
:10312000000000000000000000000000000000009F
:10313000000000000000000000000000000000008F
:103140000000000000000000000F00000000C0F3BD
:103150000000C0F30000C0F30000C0F30000C0F3A3
:103160000000C0F30000C0F30000C0F30000C0F393
:103170000000C0F30000C0F30000C0F30000C0F383
:103180000000C0F30000000000000000000000008C
:10319000000000000000000000000000000000002F
:1031A000000000000000000000000000000000001F
:1031B00000000E00000000F0800700E0C10300E006
:1031C000C10300C0C10100C0E30100C0E3010080F1
:1031D000E3000080F7000000770000007F0000009F
:1031E0003E0000003E0000001C0000000000000047
:1031F00000000000000000000000000000000000CF
:1032000000000000000000000000000000000000BE
:1032100000000000000000000000000F000000009F
:1032200060000000780000007C0000007C000000CE
:103230003E0000000E701E000E7C1E000E7C1E0064
:103240000E7E1E001E1F0000FC0F0000FC07000089
:10325000F8030000F0010000000000000000000082
:10326000000000000000000000000000000000005E
:10327000000000000000000000000000000000004E
:10328000000000001A0000000000F8070000FF3FE7
:1032900000C0FF7F00E00FF801F001E00178F0C30B
:1032A0000338FE8F071CFF1F079C0F1E07DE031C41
:1032B0000ECE011C0ECE010E0ECE830F0E8EFF1F02
:1032C0000ECEFF1F0ECEFF1F0EDE3F1C0EDC011CBC
:1032D0000F3C000E0778008F07F8C1C703F0FFE32B
:1032E00003C0FFE101003FE00000002000130000E8
:1032F000100000001E0000C01F0000F81F0000FFAB
:103300000F00E0FF0100FCFF0000FEE70000FEE010
:1033100000001EE00000FEE00000FEE70000FCFFF1
:103320000000E0FF010000FF0F0000F81F0000C0D8
:103330001F0000001E000000100000000000000040
:10334000000000000000000000000000000000007D
:10335000000000000000130000000000000000FE5C
:10336000FF1F00FEFF1F00FEFF1F00FEFF1F001ECD
:103370001E1E001E1E1E001E1E1E001E1E1E001EE5
:103380001E1E001E1E1E001E1E1E003E1F1E00FED4
:103390003F1F00FCFF1F00F8FB0F00F0F0070000CC
:1033A000E00300000000000000000000000000003A
:1033B00000000000000000000000000000000013FA
:1033C00000000000807F0000E0FF0100F0FF03002C
:1033D000F8FF0700FCC00F003C000F003E001F007C
:1033E0001E001E001E001E001E001E001E001E00ED
:1033F0001E001F003E001F007CC00F00FCE00F00FD
:10340000F8E0070070C0030040C0000000000000AA
:1034100000000000000000000000000000000000AC
:103420000000000000000000130000000000000089
:1034300000FEFF1F00FEFF1F00FEFF1F00FEFF1F1C
:10344000001E001E001E001E001E001E001E001E8C
:10345000001E001E001E001E001E001E003E001F5B
:1034600000FCC00F00FCFF0F00F8FF0700E0FF01A9
:1034700000807F000000000000000000000000004D
:10348000000000000000000000000000000000003C
:1034900000110000000000000000FEFF1F00FEFF02
:1034A0001F00FEFF1F00FEFF1F001E1E1E001E1E2F
:1034B0001E001E1E1E001E1E1E001E1E1E001E1EA4
:1034C0001E001E1E1E001E1E1E001E1E1E001E1E94
:1034D0001E001E001E000000000000000000000092
:1034E00000000000000000000000000000000000DC
:1034F00000000000000000000000100000000000BC
:10350000000000FEFF1F00FEFF1F00FEFF1F00FE69
:10351000FF1F001E1E00001E1E00001E1E00001EBB
:103520001E00001E1E00001E1E00001E1E00001EAB
:103530001E00001E1E00001E000000000000000013
:10354000000000000000000000000000000000007B
:10355000000000000000000000000000000000006B
:103560000000001300000000803F0000E0FF0100A9
:10357000F0FF0300F8FF0700FCC00F003C800F00C5
:103580003E001F001E001E001E001E001E001E002A
:103590001E3C1E001E3C1E003E3C1F007C3C0F00DB
:1035A000FCFC0F00F8FC070070FC070060FC030047
:1035B000000000000000000000000000000000000B
:1035C00000000000000000000000000012000000E9
:1035D0000000000000FEFF1F00FEFF1F00FEFF1F97
:1035E00000FEFF1F00001E0000001E0000001E0065
:1035F00000001E0000001E0000001E0000001E0053
:1036000000001E0000FEFF1F00FEFF1F00FEFF1F48
:1036100000FEFF1F0000000000000000000000008E
:10362000000000000000000000000000000000009A
:103630000000000000060000000000000000FEFF87
:103640001F00FEFF1F00FEFF1F00FEFF1F00000007
:10365000000000000000000000000000000000006A
:10366000000000000000000000000000000000005A
:10367000000000000000000000000000000000004A
:10368000000000000000000000000000000000003A
:1036900000000000000000000000000000000D001D
:1036A000C0010000C0070000C00F0000C01F0000E4
:1036B000001F0000001E0000001E0000001E000091
:1036C000001F00FEFF0F00FEFF0F00FEFF0700FEC1
:1036D000FF010000000000000000000000000000EA
:1036E00000000000000000000000000000000000DA
:1036F00000000000000000000000000000000000CA
:1037000000000000000000130000000000000000A6
:10371000FEFF1F00FEFF1F00FEFF1F00FEFF1F0039
:10372000003E0000001F0000800F0000C00F0000DE
:10373000E03F0000F07F0000F8FC01007CF807008B
:103740003EE00F001E801F000E001F0006001C0040
:10375000020018000000000000000000000000004F
:103760000000000000000000000000000000000059
:10377000100000000000000000FEFF1F00FEFF1F01
:1037800000FEFF1F00FEFF1F0000001E0000001EC5
:103790000000001E0000001E0000001E0000001EB1
:1037A0000000001E0000001E0000001E0000001EA1
:1037B0000000000000000000000000000000000009
:1037C00000000000000000000000000000000000F9
:1037D0000000000000000000001400000000FEFFD8
:1037E0001F00FEFF1F00FEFF1F00FEFF1F001E0048
:1037F0000000FE030000FC3F0000C0FF070000FCCB
:103800001F0000801F0000FC1F00C0FF0700FC3FDE
:103810000000FE0300001E000000FEFF1F00FEFF70
:103820001F00FEFF1F00FEFF1F0000000000000041
:103830000000000000000000000000000000000088
:103840000000120000000000000000FEFF1F00FE4C
:10385000FF1F00FEFF1F00FEFF1F00FC000000F81E
:10386000030000E00F0000801F0000007E00000049
:10387000FC010000F0070000C01F00FEFF1F00FE5B
:10388000FF1F00FEFF1F00FEFF1F000000000000E2
:103890000000000000000000000000000000000028
:1038A0000000000000000000000000140000000004
:1038B000807F0000E0FF0100F0FF0300F8FF070039
:1038C000FCC00F003C800F003E001F001E001E00C9
:1038D0001E001E001E001E001E001E001E001E00F8
:1038E0003E001F007C800F00FCC00F00F8FF0700A7
:1038F000F0FF0300E0FF0100807F000000000000F7
:1039000000000000000000000000000000000000B7
:1039100000000000110000000000000000FEFF1F7A
:1039200000FEFF1F00FEFF1F00FEFF1F001E1E0007
:10393000001E1E00001E1E00001E1E00001E1E0097
:10394000001E1E00003E1F0000FE0F0000FC0F00C6
:1039500000F8070000F00300000000000000000075
:103960000000000000000000000000000000000057
:103970000000000000000000000000000015000032
:103980000000807F0000E0FF0100F0FF0300F8FF6F
:103990000700FCC00F007C800F003E001F001E00CF
:1039A0001E001E001E001E801E001EC01E001EC027
:1039B0001F003E801F007C800F00FCC00F00F8FF3E
:1039C0001F00F0FF3F00E0FF7900807F78000000DB
:1039D00010000000000000000000000000000000D7
:1039E000000000000000140000000000000000FEC5
:1039F000FF1F00FEFF1F00FEFF1F00FEFF1F001E37
:103A00001E00001E1E00001E1E00001E1E00001EC6
:103A10003E00001E7E00001EFE01003EEF0300FE81
:103A2000EF0F00FCCF1F00F8071F00F0011E000081
:103A3000001800000010000000000000000000005E
:103A40000000000000000000000000000000001165
:103A50000000000000C00000F0C10300F8C3070030
:103A6000FCC70F00FC870F00BE0F1F001E0F1E00BB
:103A70001E0F1E001E1F1E001E1E1E003E1E1E00CC
:103A80007C3E1F007CFC0F0078FC0F0060F80700F4
:103A900000F0010000000000000000000000000035
:103AA0000000000000000000000000000000000016
:103AB000000000000000000011000000001E0000D7
:103AC000001E0000001E0000001E0000001E00007E
:103AD000001E000000FEFF1F00FEFF1F00FEFF1F74
:103AE00000FEFF1F001E0000001E0000001E000060
:103AF000001E0000001E0000001E0000000000006C
:103B000000000000000000000000000000000000B5
:103B100000000000000000000000000000000000A5
:103B200000120000000000000000FEFF0100FEFF88
:103B30000700FEFF0F00FEFF0F0000801F000000C7
:103B40001F0000001E0000001E0000001E000000FC
:103B50001E0000001F0000001F00FEFF0F00FEFF00
:103B60000F00FEFF0700FEFF010000000000000044
:103B70000000000000000000000000000000000045
:103B80000000000000000000000011060000003EE0
:103B9000000000FE010000FE1F0000FCFF0000C04E
:103BA000FF070000FC1F0000C01F0000001C0000F9
:103BB000C01F0000FC1F00C0FF0700FCFF0000FE4C
:103BC0001F0000FE0100003E000000060000000093
:103BD00000000000000000000000000000000000E5
:103BE00000000000000000000000000000000000D5
:103BF0000000001906000000FE000000FE1F00008B
:103C0000FEFF0300F0FF1F0000FC1F0000001E006D
:103C100000E01F0000FF1F00F0FF0100FE1F00007A
:103C2000FE0100001E000000FE010000FE1F00005B
:103C3000F0FF010000FF1F0000E01F0000001E0059
:103C400000FC1F00F0FF1F00FEFF0300FE1F00002E
:103C5000FE0000000600000000000000110000004F
:103C6000000000180006001C000E001F003EC01FD0
:103C700000FEF00F00FCF90300F0FF0000C03F0061
:103C800000C03F0000F0FF0000FCF90300FEE00F61
:103C9000003EC01F000E001F0006001C00000018A0
:103CA0000000000000000000000000000000000014
:103CB0000000000000000000000000000000000004
:103CC000000000000012060000000E0000003E0090
:103CD00000007E000000FC010000F8030000E00F7F
:103CE000000080FF1F0000FF1F0000FF1F0080FF7B
:103CF0001F00E00F0000F8030000FC0100007E0040
:103D000000003E0000000E00000006000000000061
:103D100000000000000000000000000000000000A3
:103D20000000000000000000000000000000100083
:103D3000001E001E001F001E801F001EC01F001E50
:103D4000E01F001EF81E001E7C1E001E3E1E001EF0
:103D50001F1E009E0F1E00DE031E00FE011E00FE41
:103D6000001E007E001E003E001E001E001E000001
:103D70000000000000000000000000000000000043
:103D80000000000000000000000000000000000033
:103D9000000000000000000900000000000000001A
:103DA000FEFFFF03FEFFFF03FEFFFF03FEFFFF0317
:103DB0001E00C0031E00C0031E00C0030000000060
:103DC00000000000000000000000000000000000F3
:103DD00000000000000000000000000000000000E3
:103DE00000000000000000000000000000000000D3
:103DF00000000000000000000000000000000000C3
:103E000008060000007E000000FE070000F87F00AA
:103E10000080FF070000F81F0000801F000000184E
:103E20000000000000000000000000000000000092
:103E30000000000000000000000000000000000082
:103E40000000000000000000000000000000000072
:103E50000000000000000000000000000000000062
:103E6000000000000000000000071E00C0031E004C
:103E7000C0031E00C003FEFFFF03FEFFFF03FEFFA3
:103E8000FF03FEFFFF030000000000000000000031
:103E90000000000000000000000000000000000022
:103EA0000000000000000000000000000000000012
:103EB0000000000000000000000000000000000002
:103EC00000000000000000000000000000000000F2
:103ED00000000D000000000004000000070000C00A
:103EE000070000F8070000FE0100003E0000003E51
:103EF000000000FE010000F8070000C007000000FD
:103F000007000000040000000000000000000000A6
:103F100000000000000000000000000000000000A1
:103F20000000000000000000000000000000000091
:103F300000000000000000000000000F00008003EF
:103F40000000800300008003000080030000800365
:103F50000000800300008003000080030000800355
:103F60000000800300008003000080030000800345
:103F7000000080030000800300000000000000003B
:103F80000000000000000000000000000000000031
:103F90000000000000000000000000000000000021
:103FA000000000000602000000060000000E0000F5
:103FB000001E0000001C00000010000000000000B7
:103FC00000000000000000000000000000000000F1
:103FD00000000000000000000000000000000000E1
:103FE00000000000000000000000000000000000D1
:103FF00000000000000000000000000000000000C1
:10400000000000000000000000000000000E0000A2
:1040100000000086070000C70F0080E71F00C0E314
:104020001F00C0611C00C0611C00C0311C00C033F7
:104030000E00C0FF0700C0FF1F0080FF1F0000FF31
:104040001F00000010000000000000000000000041
:104050000000000000000000000000000000000060
:104060000000000000000000000000000000000050
:10407000000000000000100000000000000000FE32
:10408000FF1F00FEFF1F00FEFF1F00FEFF1F00803E
:10409000070F0080010E00C0011C00C0011C00C001
:1040A000011C00C0071F0080FF0F0080FF0F0000F1
:1040B000FF070000FC0100000000000000000000FD
:1040C00000000000000000000000000000000000F0
:1040D0000000000000000000000000000000000ED2
:1040E0000000000000FC010000FF070080FF0F003F
:1040F00080FF0F00C0031E00C0011C00C0011C0097
:10410000C0011C00C0031E00C0071F0080070F0075
:1041100000030E000002020000000000000000008A
:10412000000000000000000000000000000000008F
:10413000000000000000000000000000000000007F
:1041400000000000000000000F0000000000FC0163
:104150000000FF070080FF0F0080FF0F00C0071F57
:1041600000C0011C00C0011C00C0011C0080010C2B
:104170000080070F00FEFF1F00FEFF1F00FEFF1F55
:1041800000FEFF1F00000000000000000000000013
:10419000000000000000000000000000000000001F
:1041A000000000000000000000000000000000000F
:1041B000000E0000000000FC010000FF070080FF6F
:1041C0000F0080FF0F00C0731E00C0711C00C07183
:1041D0001C00C0711C00C0731C00807F1E00807F0B
:1041E0000E00007F0C0000780400000000000000BA
:1041F00000000000000000000000000000000000BF
:1042000000000000000000000000000000000000AE
:10421000000000000000000000000AC0010000C013
:10422000010000F8FF1F00FCFF1F00FEFF1F00FE43
:10423000FF1F00CE010000CE010000CE0100000EE5
:10424000000000000000000000000000000000006E
:10425000000000000000000000000000000000005E
:10426000000000000000000000000000000000004E
:10427000000000000000000000000000000000003E
:104280000000000F0000000000FCC10000FFC7019B
:1042900080FF8F0180FF9F03C0079F03C0019C0325
:1042A000C0019C03C0019C0380018E030007C7036B
:1042B000C0FFFF03C0FFFF01C0FFFF00C0FF7F0082
:1042C00000000000000000000000000000000000EE
:1042D00000000000000000000000000000000000DE
:1042E0000000000000000000000000000F000000BF
:1042F0000000000000FEFF1F00FEFF1F00FEFF1F6A
:1043000000FEFF1F008003000080010000C00100CC
:1043100000C0010000C0030000C0FF1F00C0FF1F5D
:104320000080FF1F0000FF1F0000000000000000D1
:10433000000000000000000000000000000000007D
:10434000000000000000000000000000000000006D
:104350000000000000060000000000000000CEFF8A
:104360001F00CEFF1F00CEFF1F00CEFF1F0000006A
:10437000000000000000000000000000000000003D
:10438000000000000000000000000000000000002D
:10439000000000000000000000000000000000001D
:1043A000000000000000000000000000000000000D
:1043B00000000000000000000000000000000600F7
:1043C00000800300008003CEFFFF03CEFFFF03CE7B
:1043D000FFFF01CEFFFF0000000000000000000012
:1043E00000000000000000000000000000000000CD
:1043F00000000000000000000000000000000000BD
:1044000000000000000000000000000000000000AC
:10441000000000000000000000000000000000009C
:10442000000000000000000E00000000000000007E
:10443000FEFF1F00FEFF1F00FEFF1F00FEFF1F000C
:1044400000F00000007C000000FE010080FF07007B
:10445000C0E71F00C0831F00C0001E0040001800FE
:10446000000000000000000000000000000000004C
:10447000000000000000000000000000000000003C
:10448000000000000000000000000000000000002C
:10449000060000000000000000FEFF1F00FEFF1FDE
:1044A00000FEFF1F00FEFF1F0000000000000000D4
:1044B00000000000000000000000000000000000FC
:1044C00000000000000000000000000000000000EC
:1044D00000000000000000000000000000000000DC
:1044E00000000000000000000000000000000000CC
:1044F00000000000000000000018000000000000A4
:104500000000C0FF1F00C0FF1F00C0FF1F00C0FF52
:104510001F008003000080010000C0010000C001F6
:104520000000C0030000C0FF1F00C0FF1F0080FF8D
:104530001F0000FF1F008007000080010000C00175
:104540000000C0010000C0030000C0FF1F00C0FF4A
:104550001F0080FF1F0000FF1F0000000000000080
:1045600000000F0000000000000000C0FF1F00C09E
:10457000FF1F00C0FF1F00C0FF1F000003000080DE
:10458000010000C0010000C0010000C0030000C025
:10459000FF1F00C0FF1F0080FF1F0000FF1F000063
:1045A000000000000000000000000000000000000B
:1045B00000000000000000000000000000000000FB
:1045C00000000000000000000000001000000000DB
:1045D00000F8000000FE030000FF070080FF0F004E
:1045E00080070F00C0031E00C0011C00C0011C009A
:1045F000C0011C00C0031E0080070F0080FF0F00D9
:1046000000FF070000FE030000F8000000000000AB
:10461000000000000000000000000000000000009A
:10462000000000000000000000000000000000008A
:1046300000000000100000000000000000C0FFFFAC
:1046400003C0FFFF03C0FFFF03C0FFFF0380070796
:104650000080010E00C0011C00C0011C00C0011C34
:1046600000C0071F00C0FF0F0080FF0F0000FF0702
:104670000000FC010000000000000000000000003D
:10468000000000000000000000000000000000002A
:10469000000000000000000000000000000F00000B
:1046A000000000FC010000FF070080FF0F0080FFFA
:1046B0000F00C0071F00C0011C00C0011C00C0018A
:1046C0001C0080010E0080070F00C0FFFF03C0FF29
:1046D000FF03C0FFFF03C0FFFF0300000000000056
:1046E00000000000000000000000000000000000CA
:1046F00000000000000000000000000000000000BA
:104700000000000000000B0000000000000000C0DE
:10471000FF1F00C0FF1F00C0FF1F00C0FF1F008061
:10472000070000C0010000C0010000C0010000C07F
:104730000100000000000000000000000000000078
:104740000000000000000000000000000000000069
:104750000000000000000000000000000000000059
:104760000000000000000000000000000000000E3B
:1047700000000000000F0400801F0C00803F0E00AE
:10478000C03F1E00C0791C00C0791C00C0711C0015
:10479000C0F11C00C0F11C00C0E31F0080E30F004B
:1047A00080C10F0000810300000000000000000035
:1047B00000000000000000000000000000000000F9
:1047C00000000000000000000000000000000000E9
:1047D000000000000000000009C0010000C001004E
:1047E00000F8FF0700FCFF0F00FCFF1F00FEFF1F8B
:1047F00000C0011C00C0011C00C0011C0000000022
:1048000000000000000000000000000000000000A8
:104810000000000000000000000000000000000098
:104820000000000000000000000000000000000088
:104830000000000000000000000000000000000078
:10484000000F0000000000000000C0FF0700C0FFD4
:104850000F00C0FF1F00C0FF1F0000001E0000006F
:104860001C0000001C0000000C0000000E00C0FF37
:104870001F00C0FF1F00C0FF1F00C0FF1F0000007F
:104880000000000000000000000000000000000028
:104890000000000000000000000000000000000018
:1048A000000000000000000000000E00000000C03A
:1048B000010000C00F0000C07F0000C0FF03000027
:1048C000FC1F0000C01F0000001E0000801F000031
:1048D000FC1F00C0FF0300C07F0000C00F0000C02D
:1048E00001000000000000000000000000000000C7
:1048F00000000000000000000000000000000000B8
:1049000000000000000000000000000000000000A7
:1049100000000015C0000000C0070000C03F0000FC
:10492000C0FF010000FE1F0000F01F0000001F007C
:1049300000F01F0080FF0F00C0FF0000C007000054
:10494000C0FF000080FF0F0000F81F0000001F00E4
:1049500000F01F0000FE1F00C0FF0100C03F00006C
:10496000C0070000C00000000000000000000000C0
:104970000000000000000000000000000E00000029
:1049800000C0001800C0011C00C0071F00C08F1F1E
:104990000000FF070000FE030000F8000000FE0317
:1049A0000000FF0700C08F1F00C0031F00C0011CD4
:1049B00000C000180000000000000000000000001F
:1049C00000000000000000000000000000000000E7
:1049D00000000000000000000000000000000000D7
:1049E00000000000000FC0000000C0078003C01FCF
:1049F0008003C0FF800300FFC30300F8FF030080B3
:104A0000FF010000FC0100807F0000F81F0000FF94
:104A10000300C0FF0000C01F0000C0030000C00072
:104A20000000000000000000000000000000000086
:104A30000000000000000000000000000000000076
:104A400000000000000000000000000000000D0059
:104A5000000000C0011E00C0011F00C0811F00C077
:104A6000C11F00C0E11D00C0F11C00C0791C00C0C6
:104A70003D1C00C01F1C00C00F1C00C0071C00C054
:104A8000031C000000000000000000000000000007
:104A90000000000000000000000000000000000016
:104AA0000000000000000000000000000000000006
:104AB000000000000000000A00000000007000007C
:104AC0000070000000F80000F8FFFF00FCDFFF01AD
:104AD000FE8FFF030E0080030E0080030E00800394
:104AE00000000000000000000000000000000000C6
:104AF00000000000000000000000000000000000B6
:104B000000000000000000000000000000000000A5
:104B10000000000000000000000000000000000095
:104B2000050000000000000000FEFFFF03FEFFFF85
:104B300003FEFFFF03000000000000000000000073
:104B40000000000000000000000000000000000065
:104B50000000000000000000000000000000000055
:104B60000000000000000000000000000000000045
:104B70000000000000000000000000000000000035
:104B80000000000000000000000A000000000E000D
:104B900080030E0080030E008003FE8FFF03FCDF06
:104BA000FF01F8FFFF0000F8000000700000007037
:104BB00000000000000000000000000000000000F5
:104BC00000000000000000000000000000000000E5
:104BD00000000000000000000000000000000000D5
:104BE00000000000000000000000000000000000C5
:104BF00000000A00000000F8010000FC030000FEB5
:104C0000070000060600000606000006060000FE7B
:104C1000070000FC030000F8010000000000000095
:104C20000000000000000000000000000000000084
:104C30000000000000000000000000000000000074
:104C40000000000000000000000000000000000064
:104C5000000000000000000000000008000000004C
:104C6000FCFF3F00FCFF3F00040020000400200088
:104C700004002000FCFF3F00FCFF3F00000000009C
:104C80000000000000000000000000000000000024
:104C90000000000000000000000000000000000014
:104CA0000000000000000000000000000000000004
:104CB00000000000000000000000000000000000F4
:104CC00000000000D82B24051600000000000000A2
:104CD00000000000000000000000000000000000D4
:104CE00000000000000000000000000000000000C4
:104CF00000000000000000000000000000000000B4
:104D000000000000000000000000000000000000A3
:104D10000000000000000000000000000000000093
:104D20000000000000000000000000000000000083
:104D30000000000000000000000000000000000073
:104D40000000000000000000000000000000000063
:104D50000000000000000000000000000000000053
:104D60000000000000000000000000000000000043
:104D70000000000000000000000000000000000033
:104D80000000000000000000000000000000000023
:104D90000000000000000000000000000000000013
:104DA0000B000000000000000000000000000000F8
:104DB0000000000000F07F001F00F0FF1F1F00F048
:104DC000FF1F1F00F0FF1F1F00F0FF1F1F00F0FF5D
:104DD0001F1F00F07F001F00000000000000000007
:104DE00000000000000000000000000000000000C3
:104DF00000000000000000000000000000000000B3
:104E000000000000000000000000000000000000A2
:104E10000000000000000000000000000000000092
:104E20000000000000000000000000000000000082
:104E30000000000000000000000000000000000072
:104E40000000000000000000000000000000000062
:104E50000000000000000000000000000000000052
:104E60000000000000000000000000000000000042
:104E70000000000000000000120000000000000020
:104E800000000000000000007C00000000FC0F009B
:104E90000000FC0F000000FC0F000000FC0F0000F1
:104EA000007C000000000000000000000000000086
:104EB00000000000007C00000000FC0F000000FC6F
:104EC0000F000000FC0F000000FC0F0000007C0041
:104ED00000000000000000000000000000000000D2
:104EE00000000000000000000000000000000000C2
:104EF00000000000000000000000000000000000B2
:104F000000000000000000000000000000000000A1
:104F10000000000000000000000000000000000091
:104F20000000000000000000000000000000000081
:104F30000000000000000000000000000000000071
:104F40000000000000000000000000000000000061
:104F50001C00000000000000000000000000000035
:104F600000007800000000780000003C780000009D
:104F70003C781800003CF81F00003CF81F0000FCC3
:104F8000FF1F0000FCFF0700C0FF7F0000F0FF7F55
:104F90000000F07F780000F03F780000703C781847
:104FA00000003CF81F00003CF81F0000FCFF1F0041
:104FB00000FCFF0700C0FF7F0000F0FF7F0000F053
:104FC0007F780000F03F780000303C780000003C23
:104FD000780000003C000000003C000000000000E1
:104FE00000000000000000000000000000000000C1
:104FF00000000000000000000000000000000000B1
:1050000000000000000000000000000000000000A0
:105010000000000000000000000000000000000090
:105020000000000000000000170000000000000069
:10503000000000007CC00F0000FEC10F0000FF83D5
:105040000F0080FF830F0080FF871F0080FF071F76
:1050500000C0FF071F00C0CF071F00C0C70F1F0001
:10506000FCFFFFFF07FCFFFFFF07FCFFFFFF07C080
:10507000870F1F00C0879F1F00C087FF1F00C0074A
:10508000FF0F00800FFF0F00800FFF0700800FFE53
:1050900007000000FC03000000F800000000000012
:1050A0000000000000000000000000000000000000
:1050B00000000000000000000000000000000000F0
:1050C00000000000000000000000000000000000E0
:1050D00000000000000000000000000000000000D0
:1050E00000000000000000000000000000000000C0
:1050F00000000000000000000000000000000000B0
:105100002B00000000000000000000007F000000F5
:10511000C0FF010000E0FF030000F0FF070000F8FF
:10512000FF0F0000F8800F000078000F00007800EB
:105130000F000078000F0000F8800F0000F8FF0F4C
:105140000000F0FF071000F0FF031C00C0FF011E6D
:1051500000007F801F000000E01F000000F007003B
:105160000000FC01000000FF000000C03F00000044
:10517000E00F000000F807000000FE010000007FC3
:10518000000000C01F000000F00F000000F003FE50
:105190000000F080FF030070C0FF070010E0FF0F69
:1051A0000000F0FF1F0000F0011F0000F0001E00D3
:1051B00000F0001E0000F0001E0000F0011F0000C3
:1051C000F0FF1F0000E0FF0F0000E0FF070000807D
:1051D000FF03000000FE00001F00000000000000B0
:1051E0000000000000F800008007FE0300E01FFF41
:1051F0000700E0BFFF0700F0FFFF0F00F0FFFF0F09
:1052000000F8FFFF1F00F8FF831F00F8F8031F00DE
:1052100078F0071E0078E00F1E00F8F01F1E00F85F
:10522000FF3F1E00F87F3F1E00F07F7E0F00F03F23
:10523000FE0F00F03FFC0F00E01FF8070080C7FFE3
:10524000070000C0FF0F0000C0FF1F0000C0FF1FCD
:105250000000C0FF1F0000C03F1F0000C0071E006D
:105260000000001C000000001800000000180000F2
:10527000000010000000000000000000000000001E
:10528000000000000000000000000000000000001E
:10529000000000000000000000000000000000000E
:1052A00000000000000000000000000000000000FE
:1052B00009000000000000000000000000000000E5
:1052C0007C00000000FC0F000000FC0F000000FC50
:1052D0000F000000FC0F0000007C00000000000038
:1052E00000000000000000000000000000000000BE
:1052F00000000000000000000000000000000000AE
:10530000000000000000000000000000000000009D
:10531000000000000000000000000000000000008D
:10532000000000000000000000000000000000007D
:10533000000000000000000000000000000000006D
:10534000000000000000000000000000000000005D
:10535000000000000000000000000000000000004D
:10536000000000000000000000000000000000003D
:10537000000000000000000000000000000000002D
:10538000000000000000000010000000000000000D
:10539000000000000000000000C0FF000000FCFF53
:1053A0000F0000FFFF3F00C0FFFFFF00E0FFFFFF17
:1053B00001F8FFFFFF07FC3F00FF0FFC0700F80F9D
:1053C000FC0100E00F7C0000800F1C0000000E0CB0
:1053D0000000000C040000000800000000000000B5
:1053E00000000000000000000000000000000000BD
:1053F00000000000000000000000000000000000AD
:10540000000000000000000000000000000000009C
:10541000000000000000000000000000000000008C
:10542000000000000000000000000000000000007C
:10543000000000000000000000000000000000006C
:10544000000000000000000000000000000000005C
:10545000000000000000000000000000000000004C
:10546000100000000000000000000000000000002C
:1054700004000000080C0000000C1C0000000E7C62
:105480000000800FFC0100E00FFC0700F80FFC3F5C
:1054900000FF0FF8FFFFFF07E0FFFFFF01C0FFFF66
:1054A000FF0000FFFF3F0000FCFF0F0000C0FF00F7
:1054B00000000000000000000000000000000000EC
:1054C00000000000000000000000000000000000DC
:1054D00000000000000000000000000000000000CC
:1054E00000000000000000000000000000000000BC
:1054F00000000000000000000000000000000000AC
:10550000000000000000000000000000000000009B
:10551000000000000000000000000000000000008B
:10552000000000000000000000000000000000007B
:105530000000000000000000160000000000000055
:1055400000000000000000000000000000404000DB
:105550000000E0E0000000F0E0010000E0F10000E9
:1055600000C07B000000807B000000803F00000046
:10557000FCFF070000FCFF070000FCFF070000FC29
:10558000FF070000803F000000803B000000C07B60
:10559000000000E0F1000000F0E0010000E0E000A9
:1055A000000040400000000000000000000000007B
:1055B00000000000000000000000000000000000EB
:1055C00000000000000000000000000000000000DB
:1055D00000000000000000000000000000000000CB
:1055E00000000000000000000000000000000000BB
:1055F00000000000000000000000000000000000AB
:10560000000000000000000000000000000000009A
:105610001B0000000000000000000000000000006F
:10562000000000000000800F000000800F0000005C
:10563000800F000000800F000000800F000000803D
:105640000F000000800F000000800F000000800F9E
:105650000000C0FFFF1F00C0FFFF1F00C0FFFF1FB3
:1056600000C0FFFF1F00C0FFFF1F0000800F0000F1
:1056700000800F000000800F000000800F0000007D
:10568000800F000000800F000000800F00000080ED
:105690000F000000800F000000000000000000006C
:1056A00000000000000000000000000000000000FA
:1056B00000000000000000000000000000000000EA
:1056C00000000000000000000000000000000000DA
:1056D00000000000000000000000000000000000CA
:1056E00000000000000000000B00000000000000AF
:1056F000000006000000E007000000FE070000C0F8
:10570000FF070000C0FF030000C07F000000C01FB3
:10571000000000C007000000C001000000400000C1
:105720000000000000000000000000000000000079
:105730000000000000000000000000000000000069
:105740000000000000000000000000000000000059
:105750000000000000000000000000000000000049
:105760000000000000000000000000000000000039
:105770000000000000000000000000000000000029
:105780000000000000000000000000000000000019
:105790000000000000000000000000000000000009
:1057A00000000000000000000000000000000000F9
:1057B00000000000000000000000000000000000E9
:1057C0000F0000000000000000000000800F00003B
:1057D00000800F000000800F000000800F0000001C
:1057E000800F000000800F000000800F000000808C
:1057F0000F000000800F000000800F000000800FED
:10580000000000800F000000800F0000000000007A
:105810000000000000000000000000000000000088
:105820000000000000000000000000000000000078
:105830000000000000000000000000000000000068
:105840000000000000000000000000000000000058
:105850000000000000000000000000000000000048
:105860000000000000000000000000000000000038
:105870000000000000000000000000000000000028
:105880000000000000000000000000000000000018
:1058900000000000000000000900000000000000FF
:1058A00000000000000000000000C01F000000C059
:1058B0001F000000C01F000000C01F000000C01F2C
:1058C000000000C01F0000000000000000000000F9
:1058D00000000000000000000000000000000000C8
:1058E00000000000000000000000000000000000B8
:1058F00000000000000000000000000000000000A8
:105900000000000000000000000000000000000097
:105910000000000000000000000000000000000087
:105920000000000000000000000000000000000077
:105930000000000000000000000000000000000067
:105940000000000000000000000000000000000057
:105950000000000000000000000000000000000047
:105960000000000000000000000000000000000037
:10597000150000000000000000000000000000040E
:105980000000008007000000E007000000F80700AA
:105990000000FF070000C0FF070000F8FF00000044
:1059A000FE3F0000C0FF070000F0FF010000FC7F89
:1059B000000080FF0F0000E0FF030000FC7F0000FC
:1059C00000FC1F000000FC03000000FC00000000C1
:1059D0003C00000000040000000000000000000087
:1059E00000000000000000000000000000000000B7
:1059F00000000000000000000000000000000000A7
:105A00000000000000000000000000000000000096
:105A10000000000000000000000000000000000086
:105A20000000000000000000000000000000000076
:105A30000000000000000000000000000000000066
:105A4000000000000000000017000000000000003F
:105A500000000000F81F000000FFFF0000C0FFFF73
:105A60000300E0FFFF0700F0FFFF0F00F0FFFF0F54
:105A700000F0FFFF0F00F807E01F00F801801F0093
:105A8000F800001F00F800001F00F800001F00F8D9
:105A900001801F00F807E01F00F0FFFF0F00F0FF7C
:105AA000FF0F00F0FFFF0F00E0FFFF0700C0FFFF48
:105AB000030000FFFF000000F81F000000000000CE
:105AC00000000000000000000000000000000000D6
:105AD00000000000000000000000000000000000C6
